:020000040800F2
:1000000020040020010100088D0E0008A70D000843
:10001000890E000849010008F10F000800000000E7
:10002000000000000000000000000000F50E0008C5
:100030004D01000800000000C90E0008F70E00087E
:100040001B0100081B0100081B0100081B01000820
:100050001B0100081B0100081B0100081B01000810
:100060001B0100081B0100081B0100081B01000800
:100070001B0100081B0100081B0100081B010008F0
:100080001B0100081B0100081B0100081B010008E0
:100090001B0100081B0100081B0100081B010008D0
:1000A0001B0100081B0100081B0100081B010008C0
:1000B0001B0100081B0100081B0100081B010008B0
:1000C0001B0100081B0100081B0100081B010008A0
:1000D0001B0100081B0100081B0100081B01000890
:1000E0001B0100081B0100081B010008DFF80CD0F1
:1000F00000F018F8004800471910000820040020FC
:100100000648804706480047FEE7FEE7FEE7FEE7B1
:10011000FEE7FEE7FEE7FEE7FEE7FEE7990F0008D1
:10012000ED000008064C074D06E0E06840F00103D2
:1001300094E8070098471034AC42F6D3FFF7DAFF93
:1001400094100008B410000800BFFEE770470000DC
:100150002DE9F847034600240020002584460027A7
:1001600000226EE14FF0010808FA02F4D1F8008095
:1001700008EA0400A0427DD1DFF8D0A2D1F80480C3
:10018000A8EB0A09D0453AD014DCB8F1030F50D0DF
:1001900009DCB8F1000F31D0B8F1010F1CD0B8F173
:1001A000020F49D120E0B8F1110F18D0B8F1120FA9
:1001B00042D11EE0B9F5881F25D006DCB9F5803F95
:1001C00020D0B9F5801F37D11AE0B9F5001F18D03B
:1001D000B9F5041F30D117E0D1F80CC02DE0D1F8EB
:1001E0000C8008F1040C28E0D1F80C8008F1080C10
:1001F00023E0D1F80C8008F10C0C1EE000BF00BF1A
:1002000000BF00BF00BF00BFD1F80880B8F1000FE9
:1002100002D14FF0040C0BE0D1F80880B8F1010FC7
:1002200003D14FF0080C1C6102E04FF0080C5C6138
:1002300003E04FF0000C00E000BF00BFFF2801D832
:10024000984601E003F104084646FF2802D84FEA29
:10025000820803E0A2F108084FEA88084746D6F86A
:1002600000804FF00F0909FA07F928EA09080CFA8B
:1002700007F900E088E048EA0908C6F80080D1F8EC
:10028000048008F08058B8F1805F7DD100BFDFF8AE
:10029000C081D8F8188048F00108DFF8B491C9F897
:1002A0001880C846D8F8188008F00108CDF80080FA
:1002B00000BF00BF4FEAB9384FEA920958F82950F9
:1002C0004FEA82784FEA18794FF00F0808FA09F8D8
:1002D00025EA0805DFF87C81434502D14FF000088C
:1002E00016E0DFF87481434502D14FF001080FE0BA
:1002F000DFF86881434502D14FF0020808E0DFF8DB
:100300006081434502D14FF0030801E04FF004083B
:100310004FEA82794FEA197908FA09F848EA05059F
:10032000DFF840814FEA920948F82950D1F804805B
:1003300008F48038B8F5803F0AD1DFF82C81D8F86E
:10034000008048EA0008DFF82091C9F8008009E041
:10035000DFF81481D8F8008028EA0008DFF8089157
:10036000C9F80080D1F8048008F40038B8F5003FDF
:1003700010D1DFF8F48008F10408D8F8008048EACA
:100380000008DFF8E49000E05AE009F10409C9F838
:1003900000800DE0DFF8D08008F10408D8F8008074
:1003A00028EA0008DFF8C09009F10409C9F80080C4
:1003B000D1F8048008F48018B8F5801F0ED1DFF85A
:1003C000A88008F10808D8F8008048EA0008DFF89B
:1003D000989009F10809C9F800800DE0DFF88880DD
:1003E00008F10808D8F8008028EA0008DFF87890BB
:1003F00009F10809C9F80080D1F8048008F4001850
:10040000B8F5001F0ED1DFF8608008F10C08D8F8AD
:10041000008048EA0008DFF8509009F10C09C9F89B
:1004200000800DE0DFF8408008F10C08D8F800806B
:1004300028EA0008DFF8309009F10C09C9F80080BB
:10044000521C102AFFF48EAEBDE8F8870000111090
:100450000010024000080140000C01400010014063
:100460000014014008000140000401400246936866
:100470000B400BB1012000E0002070470AB1016180
:1004800001E00B04036170470148006870470000F9
:100490000000002070B504460CB9012070BD4CF678
:1004A000CC402168086045F2555021680860D4E9C5
:1004B000001048602168A0688860FFF7E5FF0546E6
:1004C00006E0FFF7E1FF401B302801D90320E5E7F4
:1004D0002068C0680028F4D14AF6AA202168086084
:1004E0000020DBE703480068034909780844014914
:1004F00008607047000000200800002010B5084880
:10050000006840F0100006490860032000F0C2F8BF
:10051000002000F007F800F02BF8002010BD0000CC
:100520000020024070B504460E4800784FF47A71FE
:10053000B1FBF0F00C490968B1FBF0F5284600F07A
:1005400014FC08B1012070BD102C07D200222146F6
:10055000501E00F061F80548046001E00120F2E758
:100560000020F0E7080000200C000020040000201C
:1005700008B500BF2648806940F001002449886121
:100580000846806900F00100009000BF00BF00BF76
:100590000846C06940F08050C8610846C06900F054
:1005A0008050009000BF00BF032000F073F80022CD
:1005B00011466FF00B0000F02FF8002211466FF08B
:1005C0000A0000F029F8002211466FF0090000F03F
:1005D00023F800221146501F00F01EF80022114699
:1005E000101F00F019F800221146901E00F014F8B8
:1005F00000221146501E00F00FF800BF0549486860
:1006000020F0E06040F00070486000BF08BD0000CE
:1006100000100240000001402DE9F05F80460D46C9
:100620001646002700F034FC074639462A46334672
:1006300001F00700C0F1070ABAF1040F02D94FF028
:10064000040A01E0C0F1070AD14600F1040ABAF138
:10065000070F02D24FF0000A01E0A0F1030AD446CE
:100660004FF0010A0AFA09FAAAF1010A0AEA020A93
:100670000AFA0CFA4FF0010B0BFA0CFBABF1010B71
:100680000BEA030B4AEA0B042146404600F008FC43
:10069000BDE8F09F00BF00F00702064B19684FF657
:1006A000FF031940044B0B4343EA0221014B19603D
:1006B00000BF70470CED00E00000FA0570B504467D
:1006C0000D4600266248006800F00700A8420ED2DE
:1006D0005F48006820F0070028435D49086008462D
:1006E000006800F00700A84201D0012070BD20780A
:1006F00000F00200022807D15648406820F0F000C0
:10070000A168084353494860207800F001000028A0
:100710005DD06068012806D14E48006800F40030C2
:1007200090B90120E2E76068022806D149480068D4
:1007300000F0007040B90120D8E74648006800F09A
:10074000020008B90120D1E74248406820F00300C8
:10075000616808433F494860FFF796FE06466068B7
:10076000012810D108E0FFF78FFE801B41F288318D
:10077000884201D90320B9E73648406800F00C00F0
:100780000428F0D123E06068022810D108E0FFF7C8
:100790007BFE801B41F28831884201D90320A5E706
:1007A0002C48406800F00C000828F0D10FE008E069
:1007B000FFF76AFE801B41F28831884201D903208D
:1007C00094E72448406800F00C000028F0D120484D
:1007D000006800F00700A8420ED91D48006820F00C
:1007E000070028431A4908600846006800F007001F
:1007F000A84201D0012079E7207800F00400042805
:1008000007D11448406820F4E060E16808431149CA
:100810004860207800F00800082808D10D4840689A
:1008200020F46050216940EAC1000A49486000F0A4
:100830001DF808494968C1F30311074A515CC840D3
:10084000064908600020FFF76DFE00204EE700001B
:1008500000200240001002407C1000080C00002024
:1008600001480068704700000C000020F0B585B01A
:100870000FF26C0C9CE8E01001A8A0E8E0101CA5A9
:100880002D68009500210022002300240020194D2E
:10089000696801F00C05F5B1042D02D0082D19D1BD
:1008A00001E0154819E001ADC1F38346AC5D01F4E8
:1008B000803555B10F4D6D68C5F340451DF80520D5
:1008C0000D4D6543B5FBF2F302E00C4D04FB05F35F
:1008D000184602E000BF084800BF00BF05B0F0BDE9
:1008E00002030405060708090A0B0C0D0E0F101071
:1008F000010200000010024000127A0000093D00D1
:10090000F8B504460025207800F00100002878D0D2
:10091000F848406800F00C0004280CD0F548406806
:1009200000F00C00082811D1F248406800F4803033
:10093000B0F5803F0AD1EF48006800F4003000288D
:100940005FD0606800285CD10120F8BD00BF6068FE
:10095000B0F5803F06D1E748006840F48030E549B3
:10096000086028E0606858B9E248006820F48030E8
:10097000E04908600846006820F4802008601AE01A
:100980006068B0F5A02F0BD1DA48006840F48020F1
:10099000D84908600846006840F4803008600AE0E2
:1009A000D448006820F48030D249086008460068C6
:1009B00020F48020086000BF606888B1FFF764FD04
:1009C000054606E0FFF760FD401B642801D90320BF
:1009D000BBE7C848006800F400300028F2D010E0FF
:1009E000FFF752FD054606E0FFF74EFD401B642869
:1009F00001D90320A9E7BF48006800F400300028AF
:100A0000F2D1207800F00200022857D1B94840689E
:100A100000F00C0050B1B748406800F00C00082806
:100A200018D1B448406800F4803098B9B1480068E3
:100A300000F0020020B12069012801D0012084E7E4
:100A4000AC48006820F0F800616940EAC100A9499B
:100A5000086033E02069E8B10120A7490860FFF78A
:100A600013FD054606E0FFF70FFD401B022801D9E4
:100A700003206AE79F48006800F002000028F2D0D7
:100A80009C48006820F0F800616940EAC10099497B
:100A9000086013E0002098490860FFF7F5FC054660
:100AA00006E0FFF7F1FC401B022801D903204CE7C8
:100AB0009048006800F002000028F2D1207800F091
:100AC000080008282DD1A069B8B101208B49086021
:100AD000FFF7DAFC054606E0FFF7D6FC401B0228CC
:100AE00001D9032031E78348406A00F00200002862
:100AF000F2D0012000F0EAF913E000207F490860FD
:100B0000FFF7C2FC054606E0FFF7BEFC401B0228CB
:100B100001D9032019E77748406A00F00200002855
:100B2000F2D1207800F00400042873D10026714827
:100B3000C06900F0805070B900BF6E48C06940F0D5
:100B400080506C49C8610846C06900F08050009030
:100B500000BF00BF01266A48006800F48070B0B989
:100B60006748006840F4807065490860FFF78CFCB6
:100B7000054606E0FFF788FC401B642801D90320E6
:100B8000E3E65F48006800F480700028F2D000BF00
:100B9000E068012806D15748006A40F00100554935
:100BA000086227E0E06858B95248006A20F0010066
:100BB000504908620846006A20F00400086219E003
:100BC000E06805280BD14B48006A40F00400494911
:100BD00008620846006A40F0010008620AE04548E1
:100BE000006A20F00100434908620846006A20F0CC
:100BF0000400086200BFE068A0B1FFF745FC0546AD
:100C000009E0FFF741FC401B41F28831884202D9DC
:100C100003209AE622E03748006A00F0020000282C
:100C2000EFD012E0FFF730FC054608E0FFF72CFCA0
:100C3000401B41F28831884201D9032085E62D48C6
:100C4000006A00F002000028F0D1012E05D12948E9
:100C5000C06920F080502749C86100BFE069C8B36F
:100C60002448406800F00C00082860D0E0690228A1
:100C700048D1002020490866FFF706FC054606E03B
:100C8000FFF702FC401B022801D903205DE619484A
:100C9000006800F000700028F2D1206AB0F5803FB3
:100CA00007D11448406820F40030A1680843114976
:100CB0004860D4E9080108430E49496821F47411D9
:100CC00008430C49486001200B490866FFF7DCFB2C
:100CD000054607E02DE0FFF7D7FB401B022801D9AE
:100CE000032032E60348006800F000700028F2D0CC
:100CF0001FE0000000100240000042428004424217
:100D00000070004000200C490866FFF7BDFB054657
:100D100006E0FFF7B9FB401B022801D9032014E6C7
:100D20000648006800F000700028F2D101E00120C0
:100D30000BE6002009E600000000424200100240DD
:100D4000042808D14FF0E021096941F004014FF077
:100D5000E022116107E04FF0E021096921F0040170
:100D60004FF0E02211617047704770B50446254688
:100D7000681EB0F1807F01D301200FE0681E4FF0A4
:100D8000E02148610F214FF0FF3000F089F800208A
:100D90004FF0E021886107200861002070BD10B588
:100DA000FFF7E2FF10BD00BFFEE7000000B585B011
:100DB00000BF2348806940F010002149886108463F
:100DC000806900F01000009000BF00BF00BF08461F
:100DD000806940F0200088610846806900F02000AA
:100DE000009000BF00BF00BF0846806940F00400CB
:100DF00088610846806900F00400009000BF00BFD1
:100E000000224FF400510F48FFF738FB4FF4005019
:100E1000019001200290002003900220049001A97B
:100E20000848FFF795F90120019000200290012069
:100E3000039001A90448FFF78BF905B000BD00003D
:100E400000100240001001400008014010B50848A1
:100E500008490860062048604FF49C71054881608D
:100E6000FFF718FB18B1BF2103A000F0C3F810BDB5
:100E700000300040100000202E2E2F5372632F6D83
:100E800061696E2E6300000000BFFEE7704700003E
:100E900002480068C0F30220704700000CED00E03B
:100EA00010B5002807DA0A07140E054A00F00F03F0
:100EB0001B1FD45403E00A07130E024A135410BD3B
:100EC00018ED00E000E400E07047000008B50849B4
:100ED0000968C9084FF47A72B1FBF2F141430091FD
:100EE00000BF00BF00994A1E00920029F9D108BD39
:100EF0000C000020704710B5FFF7F4FAFFF74FFF22
:100F000010BD000010B590B0092006904FF480305D
:100F100007900020089001200A900C9002200D906C
:100F2000C1030E914FF4E0110F9106A8FFF7E8FC02
:100F300018B1992114A000F05DF80F200190022053
:100F40000290002003904FF48060049000200590F0
:100F5000022101A8FFF7B2FB18B1A7210AA000F0F7
:100F600049F8FFF77DFC4FF47A71B0FBF1F42046AD
:100F7000FFF7FBFE0420FFF7E3FE00221146501EA0
:100F8000FFF74AFB10B010BD2E2E2F5372632F6D4A
:100F900061696E2E630000001148006840F0010096
:100FA0000F490860084640680E4908400C494860EF
:100FB000084600680C49084009490860084600686E
:100FC00020F4802008600846406820F4FE00486055
:100FD0004FF41F008860C803044908607047000090
:100FE000001002400000FFF8FFFFF6FE08ED00E0F1
:100FF00000BFFEE700BFFEE702E008C8121F08C1FD
:10100000002AFAD170477047002001E001C1121F89
:10101000002AFBD170470000FFF770FAFFF772FF5C
:10102000FFF7C4FEFFF712FF4AF6AA201049086036
:101030004CF6CC4008600F48C06840F400500D49A1
:10104000C86013E001210C48FFF710FA044664B9A8
:101050000848C06820F400500649C8604AF6AA2033
:101060000349086000BF002CFDD000BFEAE7000084
:101070000030004000100140000801400000000066
:101080000000000001020304060708090000000038
:1010900001020304B410000800000020100000004A
:1010A000F80F0008C4100008100000201004000011
:1010B00008100008000000001000000001000000FF
:0410C00000A24A043C
:04000005080000ED02
:00000001FF
